:020000040800F2
:1000000010B5054C237833B9044B13B10448AFF352
:1000100000800123237010BD0400002000000000B8
:100020000C01000808B5034B1BB103490348AFF3AB
:10003000008008BD00000000080000200C0100083E
:1000400070477047024B13B1024800F005B8704783
:100050000000000065000008002301461A4618460B
:1000600000F014B838B5074D074C641BA4101CB938
:10007000BDE8384000F050B8013C55F824309847AE
:10008000F5E700BF2C010008300100082DE9F0471A
:10009000DFF86CA00646DAF8000098460F46914655
:1000A000FFF7CEFF174B1C680CB9174C1C60656836
:1000B000DAF800001F2D05DDFFF7C3FF4FF0FF301A
:1000C000BDE8F0879EB104EB85010122C1F888905C
:1000D000D4F88831AA401343C4F88831022EC1F8FD
:1000E000088102BFD4F88C311343C4F88C316B1CE7
:1000F0000235636044F82570FFF7A3FF0020DFE7B7
:10010000000000202400002028000020F8B500BFD7
:10011000F8BC08BC9E467047F8B500BFF8BC08BCE8
:040120009E46704740
:08012400450000082500000859
:04012C0001000008C6
:04013000200000208B
:0400000508000000EF
:00000001FF
