:020000040800F2
:10000000000008201D180008450F0008490F0008CF
:100010004D0F0008510F0008550F000800000000A8
:10002000000000000000000000000000590F000860
:100030005D0F000800000000610F0008650F000858
:100040006D1800086D1800086D1800086D1800087C
:100050006D1800086D1800086D1800086D1800086C
:100060006D1800086D1800086D1800086D1800085C
:100070006D1800086D1800086D1800086D1800084C
:100080006D1800086D1800086D1800086D1800083C
:100090006D1800086D1800086D1800086D1800082C
:1000A0006D1800086D1800086D1800086D1800081C
:1000B0006D1800086D1800086D1800086D1800080C
:1000C0006D1800086D1800086D1800086D180008FC
:1000D0006D1800086D1800086D1800086D180008EC
:1000E0006D1800086D1800086D1800086D180008DC
:1000F0006D1800086D1800086D1800086D180008CC
:100100006D1800086D1800086D1800086D180008BB
:100110006D1800086D1800086D1800086D180008AB
:100120006D1800086D1800086D1800086D1800089B
:100130006D1800086D1800086D1800086D1800088B
:100140006D1800086D1800086D1800086D1800087B
:100150006D1800086D1800086D1800086D1800086B
:100160006D1800086D1800086D1800086D1800085B
:100170006D1800086D1800086D18000800000000D8
:100180006D1800086D1800086D1800086D1800083B
:100190006D1800086D1800086D1800086D1800082B
:1001A0006D1800086D1800086D1800086D1800081B
:1001B0006D1800086D1800086D1800086D1800080B
:1001C0006D1800086D180008000000006D18000888
:1001D0006D1800086D1800086D1800086D180008EB
:1001E0006D1800086D1800086D1800086D180008DB
:0801F0006D1800086D180008ED
:1001F80010B5054C237833B9044B13B10448AFF359
:1002080000800123237010BD0400002000000000BE
:100218007018000808B5034B1BB103490348AFF336
:10022800008008BD000000000800002070180008C9
:1002380002440346934200D1704703F8011BF9E7D3
:1002480070B50D4D0D4C641BA4100026A64209D1B3
:100258000B4D0C4C01F008FB641BA4100026A642B1
:1002680005D170BD55F8043B98470136EEE755F8BF
:10027800043B98470136F2E7A0180008A0180008C8
:10028800A0180008A41800082E4A136823F00F03CA
:1002980043F0030310B51360136803F00F03032B37
:1002A800FAD12949294A0B6823F4404343F480438F
:1002B8000B600B6843F480330B60136843F48023AE
:1002C8001360136843F48033136013689903FCD5F3
:1002D80054681F481F4B20401C4903435360136850
:1002E80043F0807313600B689A01FCD5164A536873
:1002F8005B04FCD5154CA36823F0F003A360A36846
:1003080023F4E05343F48053A360A36823F46043C9
:10031800A360A36823F0030343F00203A360A36868
:1003280003F00C03082BFAD10B4801F00BF90A482B
:1003380001F02CF9D4F88C3023F08073C4F88C3099
:1003480010BD00BF003C0240007000400038024071
:100358000080BCFF0418400000D8B805554B56482B
:10036800196C564A41F080512DE9F04F196485B057
:10037800196C4FF6FF04524D01F08051DFF84881A7
:1003880003910399596C41F4804159645B6C03F4FF
:1003980080430293029BC36823401A43C260FFF75D
:1003A80073FF00F095F800F0AFF900F02FFA00F0B5
:1003B800A5FA00F01DFB00F05BFB00F0CBFB00F0A2
:1003C8003DFC00F0B5FC00F053FD4FF0E022B0EE2C
:1003D800000A136943F00203136100F00DFD0F21B9
:1003E800044601A800F030FD022101A800F024FD18
:1003F8002146344C01A800F01BFD01234FF0804B2F
:100408004FF4804601A9AB6103224046C4F818B0F6
:1004180000F022FD4FF49670A6614FF0800A01F0BB
:10042800A3F84FF48032B0EE040A4FF40009AA6131
:10043800C5F818A000F0E0FC0F21074601A800F05D
:1004480003FD022101A800F0F7FC394601A800F0DD
:10045800EFFC032201A94046C4F818B000F0FCFCE8
:100468004FF49670A66101F07FF8B0EE080AC5F85F
:100478001890C5F818A000F0BFFC0F21074601A886
:1004880000F0E2FC022101A800F0D6FC394601A8E0
:1004980000F0CEFC032201A94046C4F818B000F0D1
:1004A800DBFC4FF49670A66101F05EF8C5F8189071
:1004B800A3E700BF0038024000ED00E00003FA05A2
:1004C80000040240000C024000300140000000001F
:1004D8002DE9F04F864B0024864F4FF08041DFF81E
:1004E8001CA20326DFF818820225DFF818924FF4C1
:1004F800804B40462DED028B8FB0CDE90A44CDE903
:100508000C4409941A6B42F010021A631A6B02F039
:1005180010020792079A1A6B42F004021A631A6BC8
:1005280002F004020692069A1A6B42F020021A633D
:100538001A6B02F020020592059A1A6B42F08002AB
:100548001A631A6B02F080020492049A1A6B42F042
:1005580001021A631A6B02F001020392039A1A6BE2
:1005680042F002021A631A6B02F002020292029A25
:100578001A6B42F008021A631A6B02F00802019221
:10058800019A1A6B42F040021A631B6B03F0400396
:1005980000934FF48033009A4FF48002BB61564BAE
:1005A800B961996108A9CAF818204FF400029FEDB3
:1005B8004E8BBA614FF40052089200F0D1FC08A9A2
:1005C80040464FF00108CDE90855CDE90A648DEDA4
:1005D8000C8B00F0C5FC08A94846CDE90855CDE9C3
:1005E8000A648DED0C8B00F0BBFC042148460B948B
:1005F800089108A9CDE909568DED0C8B00F0B0FCE7
:1006080008A938460C94CDE90888CDE90A4400F0D9
:10061800A7FC4FF4005208A93846CDE908258DED0E
:100628000C8BCDE90A6400F09BFC08A938460C94B1
:10063800CDE908B8CDE90A4400F092FC2E4B08A990
:10064800CDF820B018464FF00A0BCDE90986CDE960
:100658000B4400F085FC402308A950460893CDE9D7
:100668000984CDE90B4400F07BFC8022002308A913
:1006780050460C944FF0000ACDE9082300F070FCB6
:100688004FF4807308A9484608930B94CDE909569E
:10069800CDE90CAB00F064FC4FF4806308A9484630
:1006A80008930B94CDE90956CDE90CAB00F058FC42
:1006B8004FF4006308A9484608930B94CDE90CABA6
:1006C800CDE9095600F04CFC802308A93846CDF83E
:1006D80024800C940893CDE90A4400F041FC0FB043
:1006E800BDEC028BBDE8F08F000000000B0000009D
:1006F8000038024000040240000C0240001802408A
:10070800000802400000024030B53B4B97B000247F
:1007180004200321394D02940B94069412940994F1
:100728001594CDE90344CDE90C44CDE90E44CDE957
:100738000744CDE913445A6C42F480725A645A6CE7
:1007480002F480720192019A1A6B42F004021A6351
:100758001B6B03F00403CDE91001009310A928488E
:10076800009B00F0FDFB0022002302A92846049408
:10077800CDE9022300F0D0FC0BA928460F94CDE95F
:100788000B44CDE90D4400F0E1FCAB684FF4803236
:1007980006A943F480631B48AB600023CDE9062318
:1007A80000F08CFC4FF4407393FAA3F34FF40072FB
:1007B800B3FA83F314484FF00071DA4050F822304E
:1007C80023F01F0343F00C0340F8223091FAA1F103
:1007D8004FF0F872EB6892FAA2F14FF4C000B1FA48
:1007E80081F1C8400721814023EA010392FAA2F26D
:1007F800EB6017B030BD00BF003802400020014058
:1008080000080240002301402C20014030B5374B3E
:1008180091B0002408200321354D029405940C94CE
:100828000F94CDE90344CDE90644CDE90844CDE968
:100838000D445A6C42F400725A645A6C02F4007205
:100848000192019A1A6B42F004021A631B6B03F0BF
:100858000403CDE90A0100930AA92648009B00F089
:100868007FFB0022002302A928460494CDE9022335
:1008780000F052FC284605A90994CDE90544CDE9C4
:10088800074400F063FCAA684FF4407342F48062A6
:10089800AA6093FAA3F34FF40072B3FA83F31648ED
:1008A8004FF00071DA4050F8223023F01F0343F074
:1008B8000D0340F8223091FAA1F104F180444FF081
:1008C800F87204F59034D4F80C3192FAA2F14FF48E
:1008D8001000B1FA81F1C8400721814023EA0103E1
:1008E80092FAA2F2C4F80C3111B030BD00380240BF
:1008F80000210140000802402C21014030B5384B4E
:1009080091B000244FF480700321364D0294059471
:100918000C940F94CDE90344CDE90644CDE908448D
:10092800CDE90D445A6C42F480625A645A6C02F460
:1009380080620192019A1A6B42F020021A631B6BC3
:1009480003F02003CDE90A0100930AA92648009B79
:1009580000F006FB0022002302A928460494CDE9F2
:10096800022300F0D9FB284605A90994CDE90544DE
:10097800CDE9074400F0EAFBAA684FF4407342F45B
:100988008062AA6093FAA3F34FF40071B3FA83F379
:100998001648D9404FF0007350F8212022F01F026A
:1009A80042F0060240F8212093FAA3F2B2FA82F24A
:1009B8000C354FF0F871D34055F8232091FAA1F087
:1009C8004FF09074B0FA80F0C4400720A04022EAAB
:1009D800000291FAA1F145F8232011B030BD00BF03
:1009E8000038024000220140001402402C2201403D
:1009F80010B51B4B8CB000241020032102940894DE
:100A080005940B94CDE90344CDE909441A6C42F0EE
:100A180000521A641A6C02F000520192019A1A6B81
:100A280042F001021A631B6B03F00103CDE90601D2
:100A3800009306A90B48009B00F092FA02AA0A4903
:100A48000A4805949FED047B8DED027B00F0A4FD20
:100A58000CB010BDAFF300803800000000000000AB
:100A680000380240000002400100100200740040FB
:100A78002DE9F043002491B0314D01270894022656
:100A880006944FF00309DFF8C88002A9CDE90944AC
:100A9800CDE90B44CDE90D44D5F89030404623F418
:100AA8004023C5F890302B6B43F020032B632B6B4E
:100AB800059703F02003CDF810900193019B0423C0
:100AC800CDE90276079300F04BFA0022042302A92D
:100AD8004046CDE90623CDE90497CDE9026600F04A
:100AE8003FFA2B6C174808A943F480032B642B6C3E
:100AF80003F480030093009A4268134B42F000729B
:100B08004260C2681340114AC360C36823F40043BB
:100B1800C360036823F400230360036823F40033ED
:100B2800036000230E94CDE908420022CDE90A446F
:100B3800CDE90C2300F05CFD11B0BDE8F08300BFE7
:100B4800003802400058004001F8FFFF5D3E3020A9
:100B5800001402402DE9F04D92B000212822344EB5
:100B680008A80C46FFF764FB324B032730464FF0CA
:100B780002084FF0000A4FF0050B2F4DCDE9054450
:100B88005A6C42F480525A645A6C02F480520192B0
:100B9800019A1A6B42F001021A6320221B6B049718
:100BA80003F0010300930223009902A9CDE902236F
:100BB8000523079300F0D4F9402302A93046059491
:100BC8000293CDE90387CDE906AB00F0C9F980238C
:100BD80002A9304602930594CDE906ABCDE9038717
:100BE80000F0BEF94FF48273002208A909934FF46C
:100BF800E063284608940A934FF400730B940D930E
:100C080007230C940E940F94CDE9102300F028FDCF
:100C18006B6823F010036B606B6843F008036B602C
:100C28002B6843F040032B6012B0BDE8F08D00BF85
:100C38000000024000380240003001402DE9F04F2A
:100C4800282295B0002103260DEB020007270C4649
:100C5800FFF7EEFA324B4FF00209DFF8D0804FF081
:100C6800000A30484FF0060B2F4DCDE907441A6CA7
:100C780042F400421A641A6C02F400420392039A86
:100C88001A6B42F002021A631A6B02F00202029215
:100C9800029A1A6B42F004021A6304221B6B06962E
:100CA80003F00403099701930223019904A9CDE9EC
:100CB800042300F055F94FF4806304A94046CDE9B8
:100CC8000439CDE90664CDE908AB00F049F94FF4E1
:100CD800006304A9404604930794CDE908ABCDE925
:100CE800059600F03DF94FF4407300220AA90C93D1
:100CF8004FF40073284613970D94CDE90E23CDE9E0
:100D08000A44CDE9114400F0ABFC6B6823F01003F2
:100D18006B606B6823F008036B6015B0BDE8F08F5B
:100D28000038024000040240003C00400008024035
:100D3800F0B593B0002128222B4E08A80C46FFF7E7
:100D480077FA2A4B03273046294DCDE905445A6CDA
:100D580042F400525A645A6C02F400520192019A09
:100D68001A6B42F010021A6304221B6B049703F0FB
:100D7800100300930223009902A9CDE90223052359
:100D8800079300F0EDF84022022302A930460497A9
:100D98000594CDE9022300220523CDE9062300F0BE
:100DA800DFF84FF440434FF4407208A908934FF41A
:100DB80082730A92002209934FF4007328460D9318
:100DC8000723CDE90B44CDE91023CDE90E4400F00B
:100DD80047FC6B6823F010036B606B6843F00803F3
:100DE8006B6013B0F0BD00BF001002400038024035
:100DF80000340140000000009FED097BB7EEC00AF7
:100E08009FED096B20EE070B80EE067BBBFE477B50
:100E1800BCEEC77B17EE103A98B27047AFF300806C
:100E2800000000000000B040FCA9F1D24D62104063
:100E38000B0A817043707047037803F00F0343EA8D
:100E480001130370704700BF037801F00F0123F00E
:100E58000F030B430370704742B10A4483689B0732
:100E6800FCD511F8013B91420373F7D1704700BFDD
:100E780070B5304B90B000242F4D032602A908947A
:100E8800284605940694CDE90944CDE90B44CDE9FB
:100E98000D44D3F8902022F03002C3F890201A6C49
:100EA80042F480221A641A6C02F480220192019A98
:100EB8001A6B42F008021A634FF480721B6B049697
:100EC80003F008030093009B0223CDE902230723C4
:100ED800079300F045F84FF40072022302A9284650
:100EE8000496A5F5E2350594CDE9022300220723EF
:100EF800CDE9062300F034F84FF4E1330C2208A9B9
:100F080028460E94CDE908340023CDE90A44CDE9FA
:100F18000C2300F0E7FB6B6823F490436B60AB682D
:100F280023F02A03AB602B6843F001032B6010B059
:100F380070BD00BF00380240000C0240FEE700BF51
:100F4800FEE700BFFEE700BFFEE700BFFEE700BF09
:100F5800704700BF704700BF704700BF704700BFB1
:100F68002DE9F04F0C6883B094FAA4F2B2FA82F239
:100F780034FA02F300F08480E3434FF0010E4FF09F
:100F8800030C019317E0D0F8008093FAA3F7B7FA9F
:100F980087F793FAA3F3B3FA83F37F005B000CFAA5
:100FA80007F79D4028EA070848EA05050560013269
:100FB80034FA02F364D00EFA02F32340F7D04D68F6
:100FC8006F1E012F1FD8D0F8088093FAA3F7B7FA3D
:100FD80087F793FAA3F9B9FA89F97F008E684FEA7F
:100FE80049090CFA07F728EA070706FA09F8019EE3
:100FF80047EA0807876047683740CE6806FB04F869
:1010080047EA08074760D0F80C8093FAA3F7B7FAC5
:1010180087F793FAA3F97F00B9FA89F9022D0CFA38
:1010280007F74FEA490928EA07080F6907FA09F993
:1010380048EA0907C760A6D193FAA3F8B8FA88F86E
:101048001F0AD1F814A0B8F1070F1DDCD0F82080D2
:1010580093FAA3FBBBFA8BFB93FAA3F7B7FA87F7CC
:101068004FEA8B0B4FEA87090AFA09F74FF00F0985
:1010780009FA0BF928EA090848EA0707076282E72C
:10108800002003B0BDE8F08FD0F8248097FAA7F9C4
:10109800B9FA89F997FAA7F7B7FA87F74FEA8909EA
:1010A800BF000AFA07F74FF00F0A0AFA09F928EA07
:1010B800090848EA0707476265E700BF124B134A69
:1010C80010B4134CA4689B68926823431343DB074E
:1010D8000BD4D1E9002363B941680E4B0B4013438D
:1010E800436000205DF8044B704701205DF8044B15
:1010F800704744681A43074B2340D1E90241134320
:1011080023430B434360ECE70021014000220140E8
:1011180000200140E010FCFF0246806810F001004A
:1011280010D10B6830B48C68556823434C68064965
:1011380029400B435360936823F40063234330BC76
:101148009360704701207047FFFEFFFC8268D30759
:101158001CD40346426810B44C68CCB922F46842E7
:10116800426098680E4A0240C868024308690968E4
:101178000243002001F070610A439A60DA6A22F49F
:10118800700222435DF8044BDA6270470120704711
:1011980022F468428868224302435A60E1E700BFAC
:1011A800FDFCFFC0032830B459D00C2808D0B0F596
:1011B800406F2DD0302800F0A980002030BC704747
:1011C8006D4A6E49D2F8903003F00C0343F4402383
:1011D8008B423ED0B3F10C1F35D004398B42936853
:1011E80003F00C0328D0042B00F0C480082B00F077
:1011F800A8806348604B634C9A689B68C2F30312EB
:101208006149C3F38223A25CCB5CD040D8401EE086
:10121800594A5E49D2F8903003F4406343F0406382
:101228008B4216D0B3F10C2F0DD0A1F580618B4203
:10123800936803F00C0325D1042B7CD0082B4CD0E9
:101248004F4830BC7047106FC0F34000C00330BC3B
:101258007047106810F00200F2D130BC7047464A5F
:101268004B49D2F8903003F0030343F440338B42E8
:10127800EFD0B3F1031FE6D001398B42936803F036
:101288000C03D9D0042B5AD0082B56D153683C4DA7
:10129800546813F4800F3F48516804F03F045368C2
:1012A80008BF2846C1F38812C3F30143B0FBF4F02A
:1012B800013302FB00F05B00B0FBF3F02E4B314C26
:1012C8009A689B68C2F303122F49C3F34233A25CA6
:1012D800CB5CD04030BCD84070475368284D546828
:1012E80013F4800F2B48516804F03F04536808BF7B
:1012F8002846C1F38812C3F30143B0FBF4F001336D
:1013080002FB00F05B00B0FBF3F0A0E71A4A2249A9
:10131800D2F8903003F0300343F440138B4298D056
:10132800B3F1301F8FD010398B42936803F00C0350
:101338007FF459AF80E7174889E71148BEE7154899
:10134800BCE753680E4D546813F4800F1148516878
:1013580004F03F04536808BF2846C1F38812C3F35A
:101368000143B0FBF4F0013302FB00F05B00B0FB7B
:10137800F3F03FE707483DE70038024008000C005B
:101388000024F40090180008881800080008000CD1
:101398000200030000127A0020003000C02830B498
:1013A8003BD0B0F5407F0AD0B0F5405F00F0A18097
:1013B800B0F5404F00F08380002030BC7047584A99
:1013C8005849D2F8903003F4407343F040738B428D
:1013D8003DD0B3F1032F1AD0A1F580718B429368E9
:1013E80003F00C032CD0042B7FD0082B4ED04E4892
:1013F8004B4B4E4C9A689B68C2F303124C49C3F39B
:101408008223A25CCB5CD04030BCD8407047106FC0
:10141800C0F34000C00330BC7047414A4549D2F888
:10142800903003F0C00343F440038B420FD0B3F174
:10143800C01FECD040398B42936803F00C03D2D123
:10144800042B54D0082B08D0374830BC704710689C
:1014580010F00200F8D130BC70475368324D546820
:1014680013F4800F3448516804F03F04536808BFF0
:101478002846C1F38812C3F30143B0FBF4F00133EB
:1014880002FB00F05B00B0FBF3F0C4E75368264DA5
:10149800546813F4800F2848516804F03F045368D7
:1014A80008BF2846C1F38812C3F30143B0FBF4F028
:1014B800013302FB00F05B00B0FBF3F098E7184A39
:1014C8001E49D2F8903003F4404343F040438B4226
:1014D800BDD0B3F1C02F9AD0A1F580418B4293685B
:1014E80003F00C037FF47FAFAAE7134880E71248A4
:1014F80091E70B4A1249D2F8903003F4405343F075
:1015080040538B42A3D0B3F1302F80D0A1F5805146
:101518008B42936803F00C037FF465AF90E700BF3C
:1015280000380240000200030024F400901800086C
:10153800881800088000C00000127A00008000C0EF
:1015480000200030074B4FF0E022A3FB00139B095B
:1015580030B4013B0025052453619561146130BC0A
:10156800704700BFD34D62104FF0E02382B0421C99
:101578004FF0E0221B6918BF01300193019B1369EA
:10158800DB03FCD50138FAD102B07047014B186073
:10159800704700BF00000020012301F0100130B4A3
:1015A80003FA01FC04683CEA040C1DD0D568D2E9B2
:1015B80000435BB9FA2203682C438A408C4023EA33
:1015C800020323430360002030BC70472343926822
:1015D80040F6FA742B438C40134302688B4022EA8E
:1015E800040213430360EEE7184630BC704700BF9F
:1015F8000346006820F0010030B4D1E902241860E5
:10160800186842EA04220C6920F4F850024348683A
:101618001A6018611A68114842F001021A609A6843
:1016280022F400429A608A699D6822432840024356
:101638009A601CB19A6842F400429A601A680020C5
:101648000C6822F44012496922431A605A6822F44D
:1016580000420A4330BC5A60704700BF00F8FFFFE1
:10166800036802465B062FD4486970B4D1E9003498
:1016780016682343CC680D6A23430C6923438C699D
:1016880003432343CC692343144C2B433440234363
:101698008C68136044EA10405668B4F5006F104B2C
:1016A80003EA060340EA0300506003D2536843F498
:1016B80080535360B5F5005F0CD0D369002023F444
:1016C800006370BCD3617047D369012023F40063C1
:1016D800D36170478B8C1361EFE700BF4000FFFFB9
:1016E800FBF0FFFF38B50368DB0733D404464B68CB
:1016F8000D46D1E90302216803431343AA69134342
:10170800364A0A40A9681343354A236094426368FD
:1017180023F4405343EA010369696360A36823F42F
:10172800407343EA0103A36016D02E4B9C4227D096
:101738002D4B9C4228D02D4B9C4233D02C4B9C42A5
:1017480026D02C4B9C4231D02B4B9C4240D02B4B6B
:101758009C4222D0012038BD0320FFF723FD00283A
:10176800F8D02B68002BF5D0A9695A08B1F5004FBD
:1017780021D01044B0FBF3F080B2E060002038BD07
:101788000C20FFF70FFDEAE73020FFF70BFDE6E737
:101798004FF44070FFF702FEE1E74FF44040FFF7D7
:1017A800FDFDDCE7C020FFF7F9FDD8E74FF4406006
:1017B800FFF7F8FCD3E702EB40024FF6F071B2FBFB
:1017C800F3F202EA0103C2F342021A43E260D5E7E8
:1017D8004FF44050FFF7E2FDC1E700BFF369FFEFA8
:1017E800001001400044004000480040004C004008
:1017F800005000400014014000780040007C004088
:10180800034AD2F8883043F47003C2F8883070472E
:1018180000ED00E0DFF834D0FFF7F2FF0C480D4987
:101828000D4A002302E0D458C4500433C4188C4233
:10183800F9D30A4A0A4C002301E013600432A24299
:10184800FBD3FEF7FDFCFEF789FD7047000008207A
:101858000000002004000020A81800080400002050
:1018680020000020FEE70000F8B500BFF8BC08BC67
:101878009E467047F8B500BFF8BC08BC9E46704746
:101888000000000001020304000000000000000046
:08189800010203040607080920
:0418A0001D0200081D
:0418A400F90100083E
:0418A8000024F40024
:040000050800181DBA
:00000001FF
